:10000000C4C12CC118951895189518950EC118954E
:1000100018953CC118951895189518951895189528
:100020001895189518953F065B4F666D7D077F6F95
:10003000777C395E7971400700A0003E040A00A772
:03004000000000BD
:100044009D01A0EAB0E004E0E6E3F0E014911D9322
:100054000A95E9F7D9010895002309F445C0C49825
:10006400C598A89891980091A400F0E0E02FE0567C
:10007400FF4F108110FB16F4C39801C0C39A11FB03
:1000840016F4A99801C0A99A12FB16F4AD9801C000
:10009400AD9A13FB16F4AB9801C0AB9A14FB16F49B
:1000A400AA9801C0AA9A15FB16F4C29801C0C29A74
:1000B40016FB16F4909801C0909A17FB16F4AC98AE
:1000C40001C0AC9A002389F4C49AC598023089F41B
:1000D400A89A91980091A40003950093A400043079
:1000E40019F400E00093A4000895C498013069F75E
:1000F400C59AA898033069F7919AECCF9A938A939A
:10010400002309F44AC036D1902F37D1802F0091B3
:10011400A500901721F40091A6008017F1F19093A7
:10012400A5008093A600092F04FB00E000F900312C
:1001340008F000E1E02FF0E0EA5DFF4F0491009346
:10014400A000092F0F7140E139D1403108F040E19E
:1001540095FB16F400E801C000E0F0E0E42FEA5D4E
:10016400FF4F2491200F2093A100082F02950F70B8
:10017400003108F000E1E02FF0E0EA5DFF4F049168
:100184000093A2008F70803108F080E1F0E0E82F46
:10019400EA5DFF4F04910093A3008991999108951A
:1001A40012D017D023D04CDF44D0789430D00093B1
:1001B400A80052DF0091A800A1DF0091A80000234D
:1001C400A9F3A895F3CF08E101BD0CE001BDA89502
:1001D40008950CE307BB0FEC08BB0FE304BB0EE769
:1001E40005BB03E401BB0DEB02BB089500E00FBDAA
:1001F40009E00EBD0FE31FE11BBD0ABD00E108BF0E
:1002040009B7006109BF01E00093A70008951FB773
:10021400F8940091A700002300E019F00093A700D0
:1002240001E01FBF08950A9301E00093A70009911C
:100234001895E9EAF0E00EE0058301E004830FEF8E
:100244000683078303E003BF02E005BF00E40ABF9F
:100254000BB700640BBF08951A930A931FB7969ABD
:100264000BB70F7B0BBF08EC02BF01E008BF09B757
:10027400016009BF02E00093AB0000E00093AC0012
:100284001FBF099119911895FA93EA935A934A93C7
:100294003A932A931A930A935FB7E9EAF0E002814A
:1002A400002309F44FC00381829B02C0039501C05F
:1002B4000A95038302810A950283F1F0013019F053
:1002C40008EC02BF4DC000E902BF0381013014F005
:1002D40001E001C000E014810117A1F12081318106
:1002E400220F331F20833183002319F4022F01606E
:1002F400008300E0038334C000E902BF03810130BE
:100304002CF001E0048305B70E7F04C000E00483F1
:1003140005B7016005BF0BB700640BBF05810A95E3
:1003240005830023E9F446E00081118156D00F7360
:10033400068300810F730783018104FD03C00781D5
:10034400006407830EE0058301E0048309B70E7F90
:1003540009BF05B70E7F05BF0BB700640BBF9698A6
:100364005FBF099119912991399149915991E99165
:10037400F99118950091AF0008950091B000089587
:1003840000008895FECF0FE90DBF00E00EBFC0E866
:10039400D0E029D0002309F036D002DFF1DFF0CF1E
:1003A4000024E8E0EA9532F0001F001C0416D0F3A4
:1003B400041AF8CF001F402D00950895FF27442309
:1003C40012F4F1604195002312F4F0950195E8DFF1
:1003D400F0FD0195F1FD419508954A951AF01595A2
:1003E4000795FBCF089501E0089520E006D0E9F7D2
:1003F4000895259102D0E9F708952D9301501040F6
:10040400202F212B089587E390E0FC01059114919E
:10041400FC013296A591B491FC0134962591349156
:10042400422F432B19F0F901E4DF01C0DEDF069609
:1004340010E08334910748F308950000000000FFA2
:01044400FFB8
:00000001FF
:00000001FF
